{
  "_format": "hh3-artifact-1",
  "contractName": "JobEscrow",
  "sourceName": "contracts/Job.sol",
  "abi": [
    {
      "inputs": [
        {
          "internalType": "address",
          "name": "_usdc",
          "type": "address"
        }
      ],
      "stateMutability": "nonpayable",
      "type": "constructor"
    },
    {
      "anonymous": false,
      "inputs": [
        {
          "indexed": true,
          "internalType": "uint256",
          "name": "jobId",
          "type": "uint256"
        },
        {
          "indexed": false,
          "internalType": "uint256",
          "name": "amount",
          "type": "uint256"
        }
      ],
      "name": "EscrowFunded",
      "type": "event"
    },
    {
      "anonymous": false,
      "inputs": [
        {
          "indexed": true,
          "internalType": "uint256",
          "name": "jobId",
          "type": "uint256"
        },
        {
          "indexed": true,
          "internalType": "address",
          "name": "worker",
          "type": "address"
        }
      ],
      "name": "JobAccepted",
      "type": "event"
    },
    {
      "anonymous": false,
      "inputs": [
        {
          "indexed": true,
          "internalType": "uint256",
          "name": "jobId",
          "type": "uint256"
        }
      ],
      "name": "JobCancelled",
      "type": "event"
    },
    {
      "anonymous": false,
      "inputs": [
        {
          "indexed": true,
          "internalType": "uint256",
          "name": "jobId",
          "type": "uint256"
        },
        {
          "indexed": true,
          "internalType": "address",
          "name": "client",
          "type": "address"
        },
        {
          "indexed": false,
          "internalType": "uint256",
          "name": "budget",
          "type": "uint256"
        }
      ],
      "name": "JobCreated",
      "type": "event"
    },
    {
      "anonymous": false,
      "inputs": [
        {
          "indexed": true,
          "internalType": "uint256",
          "name": "jobId",
          "type": "uint256"
        },
        {
          "indexed": true,
          "internalType": "address",
          "name": "worker",
          "type": "address"
        },
        {
          "indexed": false,
          "internalType": "uint256",
          "name": "amount",
          "type": "uint256"
        }
      ],
      "name": "PaymentReleased",
      "type": "event"
    },
    {
      "anonymous": false,
      "inputs": [
        {
          "indexed": true,
          "internalType": "uint256",
          "name": "jobId",
          "type": "uint256"
        }
      ],
      "name": "WorkDelivered",
      "type": "event"
    },
    {
      "inputs": [
        {
          "internalType": "uint256",
          "name": "_jobId",
          "type": "uint256"
        },
        {
          "internalType": "address",
          "name": "_worker",
          "type": "address"
        }
      ],
      "name": "acceptFreelancer",
      "outputs": [],
      "stateMutability": "nonpayable",
      "type": "function"
    },
    {
      "inputs": [
        {
          "internalType": "uint256",
          "name": "_jobId",
          "type": "uint256"
        }
      ],
      "name": "cancelJob",
      "outputs": [],
      "stateMutability": "nonpayable",
      "type": "function"
    },
    {
      "inputs": [
        {
          "internalType": "uint256",
          "name": "_budget",
          "type": "uint256"
        }
      ],
      "name": "createJob",
      "outputs": [],
      "stateMutability": "nonpayable",
      "type": "function"
    },
    {
      "inputs": [
        {
          "internalType": "uint256",
          "name": "_jobId",
          "type": "uint256"
        }
      ],
      "name": "fundEscrow",
      "outputs": [],
      "stateMutability": "nonpayable",
      "type": "function"
    },
    {
      "inputs": [
        {
          "internalType": "uint256",
          "name": "_jobId",
          "type": "uint256"
        },
        {
          "internalType": "address",
          "name": "_worker",
          "type": "address"
        }
      ],
      "name": "hireFreelancer",
      "outputs": [],
      "stateMutability": "nonpayable",
      "type": "function"
    },
    {
      "inputs": [],
      "name": "jobCount",
      "outputs": [
        {
          "internalType": "uint256",
          "name": "",
          "type": "uint256"
        }
      ],
      "stateMutability": "view",
      "type": "function"
    },
    {
      "inputs": [
        {
          "internalType": "uint256",
          "name": "",
          "type": "uint256"
        }
      ],
      "name": "jobs",
      "outputs": [
        {
          "internalType": "address",
          "name": "client",
          "type": "address"
        },
        {
          "internalType": "address",
          "name": "worker",
          "type": "address"
        },
        {
          "internalType": "uint256",
          "name": "budget",
          "type": "uint256"
        },
        {
          "internalType": "uint256",
          "name": "escrowBalance",
          "type": "uint256"
        },
        {
          "internalType": "enum JobEscrow.JobStatus",
          "name": "status",
          "type": "uint8"
        },
        {
          "internalType": "uint256",
          "name": "createdAt",
          "type": "uint256"
        },
        {
          "internalType": "uint256",
          "name": "completedAt",
          "type": "uint256"
        }
      ],
      "stateMutability": "view",
      "type": "function"
    },
    {
      "inputs": [
        {
          "internalType": "uint256",
          "name": "_jobId",
          "type": "uint256"
        }
      ],
      "name": "releasePayment",
      "outputs": [],
      "stateMutability": "nonpayable",
      "type": "function"
    },
    {
      "inputs": [
        {
          "internalType": "uint256",
          "name": "_jobId",
          "type": "uint256"
        }
      ],
      "name": "submitWork",
      "outputs": [],
      "stateMutability": "nonpayable",
      "type": "function"
    },
    {
      "inputs": [],
      "name": "usdc",
      "outputs": [
        {
          "internalType": "contract IERC20",
          "name": "",
          "type": "address"
        }
      ],
      "stateMutability": "view",
      "type": "function"
    }
  ],
  "bytecode": "0x60a060405234801561000f575f5ffd5b50604051610ecd380380610ecd83398101604081905261002e91610099565b6001600160a01b0381166100885760405162461bcd60e51b815260206004820152601460248201527f496e76616c696420555344432061646472657373000000000000000000000000604482015260640160405180910390fd5b6001600160a01b03166080526100c6565b5f602082840312156100a9575f5ffd5b81516001600160a01b03811681146100bf575f5ffd5b9392505050565b608051610de16100ec5f395f8181610130015281816104c501526108180152610de15ff3fe608060405234801561000f575f5ffd5b506004361061009b575f3560e01c8063b0f26f1811610063578063b0f26f1814610193578063c4c11523146101a6578063c9c31af5146101b9578063e9f5aa58146101cc578063f4b1d376146101df575f5ffd5b8063180aedf31461009f5780631dffa3dc146101165780633e413bee1461012b5780634c5d8a0f1461016a57806388685cd914610180575b5f5ffd5b6100fa6100ad366004610c71565b600160208190525f918252604090912080549181015460028201546003830154600484015460058501546006909501546001600160a01b0396871696909416949293919260ff9091169187565b60405161010d9796959493929190610c9c565b60405180910390f35b610129610124366004610c71565b6101f2565b005b6101527f000000000000000000000000000000000000000000000000000000000000000081565b6040516001600160a01b03909116815260200161010d565b6101725f5481565b60405190815260200161010d565b61012961018e366004610c71565b610343565b6101296101a1366004610cfc565b6105c0565b6101296101b4366004610c71565b6105ce565b6101296101c7366004610c71565b610704565b6101296101da366004610cfc565b610928565b6101296101ed366004610c71565b610b12565b805f8111801561020357505f548111155b6102285760405162461bcd60e51b815260040161021f90610d35565b60405180910390fd5b5f82815260016020526040902080546001600160a01b031633146102875760405162461bcd60e51b815260206004820152601660248201527513db9b1e4818db1a595b9d0818d85b8818d85b98d95b60521b604482015260640161021f565b5f600482015460ff1660058111156102a1576102a1610c88565b14806102c557506001600482015460ff1660058111156102c3576102c3610c88565b145b6103055760405162461bcd60e51b815260206004820152601160248201527043616e6e6f742063616e63656c206e6f7760781b604482015260640161021f565b60048101805460ff1916600517905560405183907f58243f872c550ad02802199ade99eb4250f6bb19e9abbf2d3de7b969c0eb5e4f905f90a2505050565b805f8111801561035457505f548111155b6103705760405162461bcd60e51b815260040161021f90610d35565b5f8281526001602052604090206003600482015460ff16600581111561039857610398610c88565b146103da5760405162461bcd60e51b815260206004820152601260248201527115dbdc9ac81b9bdd0819195b1a5d995c995960721b604482015260640161021f565b80546001600160a01b031633146104335760405162461bcd60e51b815260206004820152601f60248201527f4f6e6c7920636c69656e742063616e2072656c65617365207061796d656e7400604482015260640161021f565b5f81600301541161047b5760405162461bcd60e51b81526020600482015260126024820152714e6f2066756e647320696e20657363726f7760701b604482015260640161021f565b6003810180545f9091556004808301805460ff19166001830217905550600182015460405163a9059cbb60e01b81526001600160a01b039182166004820152602481018390525f917f0000000000000000000000000000000000000000000000000000000000000000169063a9059cbb906044016020604051808303815f875af115801561050b573d5f5f3e3d5ffd5b505050506040513d601f19601f8201168201806040525081019061052f9190610d61565b9050806105735760405162461bcd60e51b81526020600482015260126024820152711554d110c81c185e5bdd5d0819985a5b195960721b604482015260640161021f565b60018301546040518381526001600160a01b039091169086907f21d71db5be59bb9fa133895586b7404307dd33fb93b16db09dc6f1d9d7d231b09060200160405180910390a35050505050565b6105ca8282610928565b5050565b805f811180156105df57505f548111155b6105fb5760405162461bcd60e51b815260040161021f90610d35565b5f8281526001602052604090206002600482015460ff16600581111561062357610623610c88565b146106645760405162461bcd60e51b8152602060048201526011602482015270115cd8dc9bddc81b9bdd08199d5b991959607a1b604482015260640161021f565b60018101546001600160a01b031633146106c05760405162461bcd60e51b815260206004820152601b60248201527f4f6e6c7920776f726b65722063616e207375626d697420776f726b0000000000604482015260640161021f565b60048101805460ff1916600317905542600682015560405183907ff423adf455a8ee19a6be88467fc08a0c700ce769c41803401efa3a6a8c81417d905f90a2505050565b805f8111801561071557505f548111155b6107315760405162461bcd60e51b815260040161021f90610d35565b5f82815260016020819052604090912090600482015460ff16600581111561075b5761075b610c88565b1461079e5760405162461bcd60e51b8152602060048201526013602482015272129bd8881a5cc81b9bdd081858d8d95c1d1959606a1b604482015260640161021f565b80546001600160a01b031633146107ee5760405162461bcd60e51b815260206004820152601460248201527313db9b1e4818db1a595b9d0818d85b88199d5b9960621b604482015260640161021f565b60028101546040516323b872dd60e01b815233600482015230602482015260448101919091525f907f00000000000000000000000000000000000000000000000000000000000000006001600160a01b0316906323b872dd906064016020604051808303815f875af1158015610866573d5f5f3e3d5ffd5b505050506040513d601f19601f8201168201806040525081019061088a9190610d61565b9050806108d05760405162461bcd60e51b81526020600482015260146024820152731554d110c81d1c985b9cd9995c8819985a5b195960621b604482015260640161021f565b6002828101546003840181905560048401805460ff191690921790915560405190815284907f911052e1be46242b46bf3c2762227ff37c000e5fe38727638096f3a17fbfe1709060200160405180910390a250505050565b815f8111801561093957505f548111155b6109555760405162461bcd60e51b815260040161021f90610d35565b5f83815260016020526040812090600482015460ff16600581111561097c5761097c610c88565b146109bb5760405162461bcd60e51b815260206004820152600f60248201526e2537b11034b9903737ba1037b832b760891b604482015260640161021f565b80546001600160a01b03163314610a0d5760405162461bcd60e51b815260206004820152601660248201527513db9b1e4818db1a595b9d0818d85b881858d8d95c1d60521b604482015260640161021f565b6001600160a01b038316610a545760405162461bcd60e51b815260206004820152600e60248201526d24b73b30b634b2103bb7b935b2b960911b604482015260640161021f565b80546001600160a01b0390811690841603610ab15760405162461bcd60e51b815260206004820152601760248201527f436c69656e742063616e6e6f7420686972652073656c66000000000000000000604482015260640161021f565b600181810180546001600160a01b0319166001600160a01b03861690811790915560048301805460ff191690921790915560405185907f4426e4a90a9570c8f678a263b11785eaaade8b79d76d18c43d4d8e00062e4f83905f90a350505050565b5f8111610b615760405162461bcd60e51b815260206004820152601d60248201527f427564676574206d7573742062652067726561746572207468616e2030000000604482015260640161021f565b5f80549080610b6f83610d87565b90915550506040805160e0810182523381525f602080830182815283850186815260608501848152608086018581524260a088015260c087018690528554865260019485905296909420855181546001600160a01b03199081166001600160a01b0392831617835593518286018054909516911617909255516002820155915160038301559251600482018054939492939192909160ff191690836005811115610c1b57610c1b610c88565b021790555060a0820151600582015560c0909101516006909101555f546040518281523391907f8678ba2d99dba901dafc51009f8d402d37a5a0275752cf0e263b827aeca906f29060200160405180910390a350565b5f60208284031215610c81575f5ffd5b5035919050565b634e487b7160e01b5f52602160045260245ffd5b6001600160a01b03888116825287166020820152604081018690526060810185905260e0810160068510610cde57634e487b7160e01b5f52602160045260245ffd5b8460808301528360a08301528260c083015298975050505050505050565b5f5f60408385031215610d0d575f5ffd5b8235915060208301356001600160a01b0381168114610d2a575f5ffd5b809150509250929050565b602080825260129082015271129bd888191bd95cc81b9bdd08195e1a5cdd60721b604082015260600190565b5f60208284031215610d71575f5ffd5b81518015158114610d80575f5ffd5b9392505050565b5f60018201610da457634e487b7160e01b5f52601160045260245ffd5b506001019056fea26469706673582212202965bf8b18d0f38591f014f70deeeaf238f2596dd1920d14e6761b6e35ae33fb64736f6c634300081c0033",
  "linkReferences": {},
  "deployedLinkReferences": {},
  "immutableReferences": {
    "48": [
      {
        "length": 32,
        "start": 304
      },
      {
        "length": 32,
        "start": 1221
      },
      {
        "length": 32,
        "start": 2072
      }
    ]
  },
  "inputSourceName": "project/contracts/Job.sol",
  "buildInfoId": "solc-0_8_28-19dc22937f78414886845e29fb1d86c0b036042a"
}